:020000040000FA
:0400000012206B2837
:040004000034003490
:020008000528C9
:06000A00F000030EF100FE
:10001000F60A0319721483120B11710E8300F00E8D
:10002000700E0900831671308F008312850107302E
:100030009900831623309F000F30850037309200DF
:1000400083120C30950093018C10073092008C1CA9
:10005000272883160511831201309F0091219F14D8
:100060009F1830289F149F1833281E08BE00BF0019
:10007000C000C100C200C300C400C500C600C70064
:10008000C800C900CA00CB00CC00CD00CF01CE0112
:1000900005309F0091219F149F184C281E08DE00F8
:1000A000DF00E000E100E200E300E400E500E6003C
:1000B000E700E800E900EA00EB00EC00ED00EF01EA
:1000C000EE01A0308B008316873081008312003050
:1000D0008100F20108008312051685163F30812148
:1000E0009F2105128512003081219F219F219F2190
:1000F0009F211F08F3399F0091219F149F187E288C
:1001000091211E08F700000077087B3C0318A62801
:100110007708823C0318AA287708873C0318AE2882
:1001200077088C3C0318A1287708903C03189D2879
:10013000000085169F2185129F2185169F2185121B
:100140009F2185169F2185129F21B22805169F2188
:1001500005129F2105169F2105129F2105169F213B
:1001600005129F219F219F219F219F217210721CA8
:10017000CB28030172080E390319C0280516C128BF
:1001800085169F2105128512F218E1207219FB20B5
:10019000F219152172100130F20527217708933CDE
:1001A000031CDB2877086E3C0318DD287808263C02
:1001B000031CDF28B7287215B728F214B728F215E8
:1001C000B7281F308121942100308121942183168A
:1001D0004530920083121F3081219421003081210B
:1001E000942183163730920083121F30812194218D
:1001F00000308121080083164530920083121F30A1
:10020000812194210030812194211F30812194216A
:1002100000308121942183163730920083121F30E1
:10022000812194210030812108001F3081219421F7
:100230000030812194211F308121942100308121BF
:1002400094211F30812194210030812108004C30FD
:1002500084000008840A8000041F31298403840379
:1002600029291F08F3399F0091219F149F183629CF
:1002700091211E08BE003E08CF004E30840084034A
:100280000008CF070318CE0A041B3F29CF0CCF0C60
:10029000CF0C4F0C0F39CF004E0EF039CF044F0862
:1002A000F700CF01CE016C3084000008840A800082
:1002B000841E5D298403840355291F08F3390438FB
:1002C0009F0091219F149F18632991211E08DE0031
:1002D0005E08EF006E30840084030008EF07031807
:1002E000EE0A841A6C29EF0CEF0CEF0C6F0C0F392F
:1002F000EF006E0EF039EF046F08F800EF01EE0129
:100300000800F900FA00F90CF90C3F30F905FA0E73
:100310003030FA050C30FA04790893007A08950019
:1003200008009229932908002E30F3007630F4005B
:10033000F30B9B29F40B98299D290000080003303A
:10034000F3001830F4000230F500F30BA829F40B89
:0A035000AA29F50BA529AC29080025
:02400E00C430BC
:00000001FF
