:020000040000FA
:0400000012207C2826
:040004000034003490
:020008000528C9
:06000A00F000030EF100FE
:10001000F60A0319721483120B11710E8300F00E8D
:10002000700E0900831671308F008312850107302E
:100030009900831623309F000F30850037309200DF
:1000400083120C30950093018C10073092008C1CA9
:10005000272883160511831201309F0099219F14D0
:100060009F1830289F149F1833281E08BE00BF0019
:10007000C000C100C200C300C400C500C600C70064
:10008000C800C900CA00CB00CC00CD00CF01CE0112
:1000900005309F0099219F149F184C281E08DE00F0
:1000A000DF00E000E100E200E300E400E500E6003C
:1000B000E700E800E900EA00EB00EC00ED00EF01EA
:1000C000EE01A0308B008316873081008312003050
:1000D0008100F2012F212F212F212F212F212F21CC
:1000E0002F212F212F212F212F212F212F212F2190
:1000F0002F212F212F2108008312051685163F304E
:100100008921A7210512851200308921A721A72165
:10011000A721A7212F21000077087B3C0318AE28D8
:100120007708823C0318B2287708873C0318B62862
:1001300077088C3C0318A9287708903C0318A52859
:1001400000008516A7218512A7218516A7218512F3
:10015000A7218516A7218512A721BA280516A72150
:100160000512A7210516A7210512A7210516A7210B
:100170000512A721A721A721A721A7217210721C70
:10018000D328030172080E390319C8280516C92897
:100190008516A72105128512F218E920721903218C
:1001A000F2191D2172100130F2052F217708933CBE
:1001B000031CE32877086E3C0318E5287808263CE2
:1001C000031CE728BF287215BF28F214BF28F215B8
:1001D000BF281F3089219C21003089219C21831652
:1001E0004530920083121F3089219C2100308921E3
:1001F0009C2183163730920083121F3089219C2165
:1002000000308921080083164530920083121F3088
:1002100089219C21003089219C211F3089219C212A
:10022000003089219C2183163730920083121F30C1
:1002300089219C210030892108001F3089219C21BF
:10024000003089219C211F3089219C210030892187
:100250009C211F3089219C210030892108004C30CD
:1002600084000008840A8000041F39298403840361
:1002700031291F08F3399F0099219F149F183E29A7
:1002800099211E08BE003E08CF004E308400840332
:100290000008CF070318CE0A041B4729CF0CCF0C48
:1002A000CF0C4F0C0F39CF004E0EF039CF044F0852
:1002B000F700CF01CE016C3084000008840A800072
:1002C000841E6529840384035D291F08F3390438DB
:1002D0009F0099219F149F186B2999211E08DE0009
:1002E0005E08EF006E30840084030008EF070318F7
:1002F000EE0A841A7429EF0CEF0CEF0C6F0C0F3917
:10030000EF006E0EF039EF046F08F800EF01EE0118
:100310000800F900FA00F90CF90C3F30F905FA0E63
:100320003030FA050C30FA04790893007A08950009
:1003300008009A299B2908002E30F3007630F4003B
:10034000F30BA329F40BA029A52900000800033012
:10035000F3001830F4000230F500F30BB029F40B71
:0A036000B229F50BAD29B4290800FD
:02400E00C430BC
:00000001FF
